:1000000002C1000030C100002EC100002CC1000060
:100010002AC1000028C1000026C1000024C1000040
:1000200022C1000020C100001EC100001CC1000050
:100030001AC10000ABC6000016C1000014C10000C8
:1000400012C1000010C100000EC100000CC1000070
:100050000AC1000008C1000006C100004DC6000032
:1000600002C1000013C60000E8C50000FCC000008B
:10007000FAC00000F8C00000F6C00000F4C00000A4
:10008000F2C00000F0C00000EEC00000ECC00000B4
:10009000EAC00000E8C00000E6C00000E4C00000C4
:1000A000E2C00000E0C00000DEC00000DCC00000D4
:1000B000DAC00000D8C00000D6C00000D4C00000E4
:1000C000D2C00000D0C00000CEC00000CCC00000F4
:1000D000CAC00000C8C00000C6C00000C4C0000004
:1000E000C2C00000000020002300260029002C00D0
:1000F0002F00320000010000030106010901000089
:100100002100240027002A002D00300033000101C7
:100110000000040107010A01000022002500280058
:100120002B002E00310034000201000005010801FF
:100130000B0105050505070508080808020202026B
:100140000A0A080804040404010101010101010173
:100150000303030303030303040707070C0C0C0C3E
:100160000C0C0C0C02020202060606060606060627
:100170000B0B0B0B0B0B0B0B0102102020080810B4
:100180002040102040800201020108040201010207
:1001900004081020408080402010080402018004E0
:1001A000020180402010080402010804020101023B
:1001B0000408102040800102040810204080000044
:1001C0000A0B02090C0D0E080703040100000000D1
:1001D000000000000000000000000000000000001F
:1001E00000000000000000000000121110000000DC
:1001F00000000000000000000000000000000000FF
:10020000000000009D0711241FBECFEFD1E2DEBF2A
:10021000CDBF00E00CBF23E0ACE1B2E001C01D9215
:10022000A73DB207E1F712E0A0E0B2E0E4E6F0E2B9
:1002300000E00BBF02C007900D92AC31B107D9F7B7
:1002400011E0C3E0D1E000E006C021970109802F52
:10025000FE010E942810C230D10780E00807A9F7EC
:10026000D4D60C943010CCCEAF92BF92CF92DF9206
:10027000EF92FF920F931F93CF93DF937C016B015B
:100280005A01FC01808191812091BA033091BB0316
:10029000C1E0D0E08217930708F062C09C01220FF2
:1002A000331FE091B803F091B903E20FF31F00810F
:1002B0001181EC01C095D095C170DD272CE93FEF8D
:1002C00080FF02C024E630E02A0D3B1DC90163E433
:1002D00070E00E94E50F0617170750F0C90168E2A9
:1002E00070E00E94E50F6F5F7F4F6017710768F540
:1002F0002A0D3B1DC90163E470E00E94E50F06175B
:10030000170750F0C90168E270E00E94E50F6F5FC7
:100310007F4F6017710780F52A0D3B1DC90163E40B
:1003200070E00E94E50F0617170760F0C90168E248
:1003300070E00E94E50F6F5F7F4F23E030E06017B1
:10034000710728F4CFEFDFEF0BC021E030E0F601BA
:10035000808191810196821793078CF49183808329
:10036000CE01DF91CF911F910F91FF90EF90DF9021
:10037000CF90BF90AF90089522E030E0E8CF118297
:100380001082F701808191810196E8CFAF92BF92F0
:10039000CF92DF92EF92FF920F931F93CF93DF9351
:1003A0006C017B018B01040F151FEB015E01AE1880
:1003B000BF08C017D10759F06991D601ED91FC91A2
:1003C0000190F081E02DC6011995892B79F7C501BF
:1003D000DF91CF911F910F91FF90EF90DF90CF9021
:1003E000BF90AF900895FC01538D448D252F30E0D0
:1003F000842F90E0821B930B541710F0CF96089532
:1004000001970895FC01918D828D981761F0A28D5E
:10041000AE0FBF2FB11D5D968C91928D9F5F9F7324
:10042000928F90E008958FEF9FEF0895FC01918DDA
:10043000828D981731F0828DE80FF11D858D90E047
:1004400008958FEF9FEF0895FC01918D228D892FE4
:1004500090E0805C9F4F821B91098F7399270895CC
:100460008BE392E0F1DF21E0892B09F420E0822F79
:100470000895FC01A48DA80FB92FB11DA35ABF4F39
:100480002C91848D90E001968F739927848FA68993
:10049000B7892C93A089B1898C91837080648C93E7
:1004A000938D848D981306C00288F389E02D808196
:1004B0008F7D80830895EF92FF920F931F93CF93C8
:1004C000DF93EC0181E0888F9B8D8C8D98131AC08F
:1004D000E889F989808185FF15C09FB7F894EE8976
:1004E000FF896083E889F9898081837080648083D3
:1004F0009FBF81E090E0DF91CF911F910F91FF901E
:10050000EF900895F62E0B8D10E00F5F1F4F0F73C5
:100510001127E02E8C8D8E110BC00FB607FCFACF81
:10052000E889F989808185FFF5CFCE01A2DFF2CF7E
:10053000EB8DEC0FFD2FF11DE35AFF4FF0829FB7BB
:10054000F8940B8FEA89FB8980818062D0CFCF93AA
:10055000DF93EC01888D8823B1F0AA89BB89E889F3
:10056000F9898C9185FD03C0808186FD0CC00FB692
:1005700007FCF7CF8C9185FFF2CF808185FFEDCF0F
:10058000CE0177DFEACFDF91CF91089580E090E050
:10059000892B21F065DF81110E94000080E090E04E
:1005A000892B49F080E090E0892B29F00E9400001F
:1005B00081110E94000080E090E0892B49F080E0EA
:1005C00090E0892B29F00E94000081110E94000018
:1005D00080E090E0892B49F080E090E0892B29F0C1
:1005E0000E94000081110C94000008958150823116
:1005F00008F05AC0E82FF0E08827EE5FFC4F8F4FDD
:100600000C9428102203260314031A031E03540318
:1006100029032F03330339033D03410347034B03EE
:1006200054034F0355035903809180008F778093C3
:1006300080000895809180008F7DF9CF80918000A7
:10064000877FF5CF84B58F7784BD089584B58F7D7E
:10065000FBCF8091B0008F778093B0000895809198
:10066000B0008F7DF9CF809190008F7780939000BC
:100670000895809190008F7DF9CF80919000877FC1
:10068000F5CF8091A0008F778093A000089580918E
:10069000A0008F7DF9CF8091A000877FF5CF80915A
:1006A00020018F77809320010895809120018F7D14
:1006B000F9CF80912001877FF5CF1F93CF93DF93F0
:1006C000282F30E0F901E254FE4F8491F901E858F7
:1006D000FE4FD491F901EE5CFE4FC491CC23A1F002
:1006E000162F811183DFEC2FF0E0EE0FFF1FE85E85
:1006F000FE4FA591B4918FB7F894EC91111108C0F9
:10070000D095DE23DC938FBFDF91CF911F910895A9
:10071000DE2BF8CFCF93DF93EC018091C50390914E
:10072000C603029749F4C130D10509F43CC07CF5F9
:1007300060E0209709F438C08091C5039091C6030A
:10074000049749F4C130D10509F456C00CF036C005
:10075000209709F440C08091C5039091C603059786
:1007600009F0C6C0CA30D10508F0C2C0FE01882712
:10077000E354FC4F8F4F0C94281010041A042804E3
:100780003A04500452045804620470047604C230DF
:10079000D10591F060E0C330D10571F68091C903B5
:1007A0008CDF60E005C061E08091C90386DF61E015
:1007B0008091CB0382DFC0CF61E0F0CFC230D105A2
:1007C00009F1C330D10509F0C6CF61E08091C903BA
:1007D00074DF60E01CC061E08091C9036EDF60E0FF
:1007E0008091CB036ADF61E08091CD0366DF60E03A
:1007F0008091CF0362DFAFCF60E08091C9035DDFFE
:1008000061E0EECF60E08091C90357DF61E0809145
:10081000CB0353DF60E08091CD034FDF61E0E8CF91
:1008200060E08091C90349DF61E08091CB0345DF3F
:1008300061E009C060E08091C9033FDF61E0809121
:10084000CB033BDF60E08091CD0337DF60E00DC07C
:1008500060E08091C90331DF61E08091CB032DDF3F
:1008600060E08091CD0329DF61E08091CF0325DF37
:1008700061E011C060E08091C9031FDF61E08091F9
:10088000CB031BDF60E08091CD0317DF61E0809137
:10089000CF0313DF60E08091D103DF91CF910DCFC3
:1008A00061E0E9CF61E08091C90307DF60E0E7CF55
:1008B00061E08091C90301DF60E08091CB03FDDE40
:1008C00061E0E1CF61E08091C903F7DE60E08091F3
:1008D000CB03F3DE61E08091CD03EFDE60E0D7CFA4
:1008E00061E08091C903E9DE60E09FCF60E0F9CF6D
:1008F000DF91CF9108958F929F92AF92BF92EF9226
:10090000FF920F931F93CF93DF93EC0197FF04C0E7
:10091000CC27DD27C81BD90B181619060CF081C08F
:1009200081E090E09093BE038093BD0304E010E06B
:100930005AE0E52EF12C209709F48FC03FB7F894C8
:100940008091370290913802A0913902B0913A0219
:1009500026B5A89B05C02F3F19F00196A11DB11D1A
:100960003FBFBA2FA92F982F8827820F911DA11D55
:10097000B11D42E0880F991FAA1FBB1F4A95D1F7EE
:100980004091D3035091D4036091D5037091D60365
:100990004C015D01841A950AA60AB70A4091BF036B
:1009A0005091C0036091C1037091C20384169506F3
:1009B000A606B70608F4BFCF8093D3039093D40361
:1009C000A093D503B093D6038091C7039091C80339
:1009D0002091BD033091BE032130310551F50196C0
:1009E0009093C8038093C7032091C3033091C4033D
:1009F0008217930721F41092C8031092C70321971E
:100A00008091C7039091C8032091C5033091C6031C
:100A1000B7012530310509F0B8010E94F90F7ADEDF
:100A20008ACF892B09F482CF1092BE031092BD03A6
:100A30007DCF892B41F48091C3039091C40390939F
:100A4000C8038093C7038091C7039091C80301979F
:100A50009093C8038093C703D2CFDF91CF911F91AA
:100A60000F91FF90EF90BF90AF909F908F9008955F
:100A7000CF93DF9390E0FC01E858FE4F24918E5C09
:100A80009E4FFC0184918823D1F090E0880F991F3C
:100A9000FC01E250FF4FA591B491FC01E85EFE4FCE
:100AA000C591D49161110EC09FB7F8948C91E22F3B
:100AB000E0958E238C932881E223E8839FBFDF910A
:100AC000CF9108958FB7F894EC91E22BEC938FBF00
:100AD000F6CFCF93DF93FC0101900020E9F7319727
:100AE000AF01481B590BBC018BE392E04FDCEC01DA
:100AF00042E050E063E172E08BE392E047DC8C0F70
:100B00009D1FDF91CF9108954F925F926F927F92D8
:100B10008F929F92AF92BF92CF92DF92EF92FF920D
:100B20000F931F93CF93DF93F82FE62FC090B80356
:100B3000D090B9034A0184E6880E911C83E4E82E24
:100B4000F12CC401B7010E94E50F5B01C8E2D0E0BF
:100B5000C401BE010E94E50F2B018FEF481A580A0D
:100B600024563109C901B7010E94E50F4B01C901A3
:100B7000BE010E94E50F3B018FEF681A780A045608
:100B80001109C801B7010E94E50F9B01C801BE0110
:100B90000E94E50F6F5F7F4FFF0FFE0F80E090E038
:100BA000DC01CE2FD0E0CC0FDD1FCC0DDD1D488148
:100BB00059814A155B05B8F144165506A0F1C1E00C
:100BC000CE0FD0E0CC0FDD1FCC0DDD1D488159814B
:100BD0004815590528F16416750638F1880F991FD4
:100BE000AA1FBB1F8160EE5FEF13DBCF8093AF03C3
:100BF0009093B003A093B103B093B20381E0DF916F
:100C0000CF911F910F91FF90EF90DF90CF90BF9009
:100C1000AF909F908F907F906F905F904F900895CE
:100C20004217530710F480E0EACF64177507D8F332
:100C3000880F991FAA1FBB1FD6CF1F920F920FB606
:100C40000F9211240BB60F922F933F934F935F9304
:100C50006F937F938F939F93AF93BF93EF93FF9384
:100C60008BE392E006DCFF91EF91BF91AF919F91F2
:100C70008F917F916F915F914F913F912F910F9045
:100C80000BBE0F900FBE0F901F9018951F920F92E2
:100C90000FB60F9211240BB60F922F938F939F9341
:100CA000EF93FF93E0914B02F0914C028081E09131
:100CB0005102F091520282FD1DC090818091540238
:100CC0008F5F8F7320915502821741F0E09154029B
:100CD000F0E0E55CFD4F958F80935402FF91EF911A
:100CE0009F918F912F910F900BBE0F900FBE0F9081
:100CF0001F9018958081F2CF1F920F920FB60F921E
:100D000011242F933F938F939F93AF93BF93809121
:100D10001D0290911E02A0911F02B09120023091FD
:100D20001C0223E0230F2D3758F50196A11DB11D9C
:100D300020931C0280931D0290931E02A0931F0219
:100D4000B09320028091370290913802A09139022D
:100D5000B0913A020196A11DB11D80933702909384
:100D60003802A0933902B0933A02BF91AF919F919C
:100D70008F913F912F910F900FBE0F901F9018955C
:100D800026E8230F0296A11DB11DD2CF1F920F920C
:100D90000FB60F9211240BB60F922F933F934F93E0
:100DA0005F936F937F938F939F93AF93BF93CF93F3
:100DB000DF93EF93FF932091D90230E0F901E254E1
:100DC000FE4F8491F901E858FE4FD491F901EE5C91
:100DD000FE4FC491CC2371F0811108DCEC2FF0E0C0
:100DE000EE0FFF1FEC51FF4FA591B491EC91ED2355
:100DF00021E009F420E04091DE025091DF024F5FD4
:100E00005F4F5093DF024093DE028091DC029091AD
:100E1000DD028536910530F031E03093AA0333E0EE
:100E20003093D8023091D80231113DC0211107C052
:100E30004436510528F51092DF021092DE028091AF
:100E4000DB02882341F08091DA0221116FC061E05A
:100E500081116FC02F9AFF91EF91DF91CF91BF91D8
:100E6000AF919F918F917F916F915F914F913F9142
:100E70002F910F900BBE0F900FBE0F901F901895E3
:100E80001092AA0381E090E09093DD028093DC024F
:100E90005093E1024093E0021092DF021092DE02D2
:100EA0008093D802CCCF3091D8023130B1F42130C8
:100EB00031F6BC016F5F7F4F7093DD026093DC02FF
:100EC000880F991FFC01E052FD4F5183408310921F
:100ED000DF021092DE0282E0E3CF3091D80232309E
:100EE000E1F4211114C0BC016F5F7F4F7093DD02EC
:100EF0006093DC02880F991FFC01E052FD4F518383
:100F000040831092DF021092DE0281E0C9CF4536A5
:100F1000510508F494CF83E0C3CF8091D802833089
:100F200009F08DCF222309F486CF89CF882319F0C9
:100F300060E0C3DB90CF2F988ECF0F931F93CF939A
:100F4000DF93EBE3F2E01382128288EE93E0A0E0FD
:100F5000B0E084839583A683B78385E092E0918394
:100F6000808385EC90E09587848784EC90E0978778
:100F7000868780EC90E0918B808B81EC90E0938B66
:100F8000828B82EC90E0958B848B86EC90E0978B43
:100F9000868B118E128E138E148ECDEBD3E01B86B2
:100FA0001A86198218821E8A1F8A188E198E86EF59
:100FB00097E09F838E8304E010E01D870C8785E017
:100FC00090E09F878E8786E090E0998B888B87E002
:100FD00090E09B8B8A8B61E084E04ADD61E08E8546
:100FE00047DD61E0888944DD61E08A8941DD1D8A51
:100FF0001C8A19870887E8EDF2E08BE08183138271
:10100000DF91CF911F910F910895CF93DF9300D07F
:101010001F92CDB7DEB7789484B5826084BD84B565
:10102000816084BD85B5826085BD85B5816085BDE3
:1010300080916E00816080936E001092810080919B
:101040008100826080938100809181008160809323
:101050008100809180008160809380008091B10048
:1010600084608093B1008091B00081608093B00073
:1010700080919100826080939100809191008160C5
:101080008093910080919000816080939000809186
:10109000A10082608093A1008091A1008160809373
:1010A000A1008091A00081608093A0008091210127
:1010B00082608093210180912101816080932101D0
:1010C0008091200181608093200180917A0084606A
:1010D00080937A0080917A00826080937A00809178
:1010E0007A00816080937A0080917A008068809392
:1010F0007A001092C1002091C3033091C403032EE3
:10110000000C440B550B60E077E883E993E084D74B
:10111000CA01B9012AE030E040E050E07DD72093D9
:10112000BF033093C0034093C1035093C203E091C7
:101130004B02F0914C0282E08083E0914702F091F3
:1011400048021082E0914902F0914A029FEC90839C
:1011500010925302E0914F02F091500296E090837A
:10116000E0914D02F0914E02908190619083E09168
:101170004D02F0914E02908198609083E0914D0273
:10118000F0914E02908190689083E0914D02F09131
:101190004E0290819F7D9083F8948093B00080935D
:1011A000B10094E69093B3001092B2008093700067
:1011B00078941092D80260E08091D90259DC81E0E5
:1011C0008093DB0261E08DE053DCF0E22F2E312CC6
:1011D0008091D802833009F0D2C520EE32E03093FE
:1011E000B9032093B8038091DC029091DD029093C3
:1011F000BB038093BA0321E03091AA03311101C0EF
:1012000020E02093BC031092AE031092AD03109225
:10121000B7032091E2023091E302275831092E35BD
:101220003105E0F0F12C82E1EBEAF3E0A5E2B2E077
:1012300001900D928A95E1F7F11023C68091DC02AE
:101240009091DD028032910509F465C080369105E8
:1012500009F0CBC073E0872E912C60C084309105DB
:1012600049F58091E4029091E50280974797D0F686
:101270008091E6029091E7020997099798F61092FB
:10128000B4031092B3038FEF9FEFDC018093AF03A1
:101290009093B003A093B103B093B20381E0809325
:1012A000B70389E090E09093AC038093AB03FF24F5
:1012B000F394B9CF8434910508F4B4CF8091E4025B
:1012C0009091E502815491098F9708F0ABCF00E32C
:1012D00012E02AE936E040E352E063E080E214DC09
:1012E000F82E882309F49ECFE091B803F091B9035A
:1012F000EA57FF4F808191810997099708F092CFB3
:101300003092B4032092B30389E090E09093AC0351
:101310008093AB0388CF88248394912CE091B80309
:10132000F091B903828193810397059708F05DC01E
:10133000848195818931910508F451C08C9708F01A
:1013400054C0BB24B394412C512C3201D12CC12C5C
:101350000BE113E02DE037E04AEF50E06B2D85E024
:10136000D3DB882309F441C08091AF039091B0038F
:101370009093AE038093AD032DE037E04AEF50E049
:1013800065E06B0D88E0C0DB882379F14091AF0305
:101390005091B0036091B1037091B20341145104B4
:1013A0006104710429F04416550666067706E9F4CF
:1013B0002A013B0140949FEFC91AD90AA6E0BA0E50
:1013C0008C149D0429F62FE030E03093B403209371
:1013D000B3033093AC032093AB03F82E06C08A30DE
:1013E000910518F0439708F4ACCF82E1EBEAF3E003
:1013F000A5E2B2E001900D928A95E1F7F11041C5A6
:101400004091BA035091BB034032510508F459C0D2
:10141000E091B803F091B90386AD97AD03970597B6
:1014200008F04FC084AD95AD0897099708F049C002
:1014300020813181A2E3B0E0B9D56135734C8105DB
:1014400091050CF4ADC0DF01D49690E080E02D91C1
:101450003C9111972831310508F497C02B323105A2
:1014600080F5880F991F81601497AE17BF0779F731
:101470002DE030E03093B4032093B3039C0120723D
:101480003327215031093093AE032093AD0325E07B
:10149000969587952A95E1F7B0E0A0E08093AF0399
:1014A0009093B003A093B103B093B20380E190E0B6
:1014B0009093AC038093AB0381E080930002FF2400
:1014C000F39482E1EBEAF3E0A5E2B2E001900D9241
:1014D0008A95E1F7F110D5C44A31510518F1E09130
:1014E000B803F091B903808191810A9708F078C020
:1014F0001092B4031092B3038FEF9FEFDC0180933F
:10150000AF039093B003A093B103B093B20381E013
:101510008093B703AFEFBFEFB093AC03A093AB03DF
:10152000FF24F39482E1EBEAF3E0A5E2B2E001905C
:101530000D928A95E1F7F110A4C44A31510508F4DF
:10154000DEC0E091B803F091B903808191814097AA
:1015500008F089C01092B4031092B3038FEF9FEF8D
:10156000DC018093AF039093B003A093B103B093D9
:10157000B20381E08093B7038EE090E09093AC03D8
:101580008093AB03FF24F394BAC02830310508F4EC
:1015900098CF2131310508F094CF880F991F64CF7F
:1015A00080910002811119C01092B4031092B3030C
:1015B0008FEF9FEFDC018093AF039093B003A09374
:1015C000B103B093B20381E08093B7038FE090E062
:1015D0009093AC038093AB0372CF1092000271CF53
:1015E0008281938185974B9708F09CCF8481958168
:1015F0000797079708F096CF812C912C540183E030
:1016000090E0268137812331310508F48BC42232E2
:10161000310508F087CF880C991CAA1CBB1C689464
:1016200080F820853185275031092730310508F0B1
:1016300079CF029634968417950718F38CE090E0E2
:101640009093B4038093B3038092AF039092B0035E
:10165000A092B103B092B20381E190E09093AC0309
:101660008093AB035DCF82819381C597879708F004
:1016700046C084819581C597879708F040C06091E6
:10168000DC027091DD0283E090E0812C912C54010A
:101690009C012F5F3F4F2617370718F526813781AA
:1016A0002C5031092B303105E0F42085318525326D
:1016B000310560F02034310510F5880C991CAA1C06
:1016C000BB1C689480F802963496E2CF2B3031052B
:1016D000B0F02631310598F4880C991CAA1CBB1C6B
:1016E000F2CF0197969587959093B4038093B303B7
:1016F0000C9708F06CC01092B4031092B30382E10F
:10170000EBEAF3E0A5E2B2E001900D928A95E1F7F1
:10171000F110B7C31C821B82A1E0B0E0BA83A98399
:101720004D30510508F479C049E753E0BE016D5FC3
:101730007F4FCE0101960E943401892B09F06DC0C4
:1017400049E753E0BE016D5F7F4FCE0101960E94D5
:101750003401019709F061C049E753E0BE016D5FB4
:101760007F4FCE0101960E9434018C01892B09F034
:1017700054C0812C912C54012091BA033091BB03A9
:1017800089819A8182179307A0F549E753E0BE014A
:101790006D5F7F4FCE0101960E9434016C0149E7D5
:1017A00053E0BE016D5F7F4FCE0101960E94340170
:1017B000B1E0CB16D104A1F4892B79F5880C991CE2
:1017C000AA1CBB1C689480F80F5F1F4FD5CF809276
:1017D000AF039092B003A092B103B092B203CCCE0B
:1017E000CD28D9F40197C9F4880C991CAA1CBB1CFC
:1017F000EBCF1093B4030093B3038092AF039092A6
:10180000B003A092B103B092B2038BE090E090934A
:10181000AC038093AB03FF24F39482E1EBEAF3E0A3
:10182000A5E2B2E001900D928A95E1F7F11029C38B
:101830001C821B82E1E0F0E0FA83E9838091BA0325
:101840009091BB03892B09F47EC0E091B803F0911D
:10185000B9038281938189974E9708F074C022E082
:1018600030E03A832983848195810B970A9708F0A9
:101870006AC083E090E09A8389834CEB51E0BE011B
:101880006D5F7F4FCE0101960E9434018C01892B40
:1018900009F059C04CEB51E0BE016D5F7F4FCE01A6
:1018A00001960E943401019709F04DC0412C512C42
:1018B00032012091BA033091BB0389819A8182174A
:1018C000930708F06CC24CEB51E0BE016D5F7F4F97
:1018D000CE0101960E9434015C010330110539F1FB
:1018E0004CEB51E0BE016D5F7F4FCE0101960E942F
:1018F00034016C010330110561F44CEB51E0BE0181
:101900006D5F7F4FCE0101960E943401C816D90643
:10191000D1F4A114B10409F435C2AA94AB2899F406
:10192000CD2889F4440C551C661C771C35C24CEB41
:1019300051E0BE016D5F7F4FCE0101960E943401E0
:10194000A816B90669F282E1EBEAF3E0A5E2B2E09B
:1019500001900D928A95E1F7F11093C28091BA033C
:101960009091BB0382369105B8F1E091B803F091F4
:10197000B90382819381C597879770F5848195819A
:101980004B97459748F500E911E02CED34E046EF20
:1019900051E063E080E1B8D88823F1F08091AF0393
:1019A0009091B0039093AE038093AD032CED34E09F
:1019B00046EF51E063E180E2A7D8882369F02AE08E
:1019C00030E03093AC032093AB0320E330E030935E
:1019D000B4032093B303F82E82E1EBEAF3E0A5E22F
:1019E000B2E001900D928A95E1F7F1104AC2809120
:1019F000DC029091DD02CC97A8F1E091B803F09160
:101A0000B903828193818E5791098835910550F5EC
:101A100084819581CD978B9728F506E212E020E42A
:101A200036E048E552E063E08CE16ED88823D1F0DF
:101A3000E091B803F091B903EA58FF4F208131815A
:101A40002A5031092930310568F42CE130E0309317
:101A5000B4032093B30326E030E03093AC0320932B
:101A6000AB03F82E82E1EBEAF3E0A5E2B2E00190ED
:101A70000D928A95E1F7F11004C24091BA0350919A
:101A8000BB03E091B803F091B903828193814232A4
:101A9000510509F099C19C012A50310929303105BD
:101AA00008F092C1DF01AE5BBF4F2D913C912A50EF
:101AB00031092930310508F087C11092B403109222
:101AC000B3038FEF9FEFDC018093AF039093B003DC
:101AD000A093B103B093B20381E08093B70384E095
:101AE00090E09093AC038093AB03FF24F39482E1E6
:101AF000EBEAF3E0A5E2B2E001900D928A95E1F7FE
:101B0000F110BFC1E091B803F091B90382819381D4
:101B100084549109C19760F58091DC029091DD02B7
:101B20008430910509F089C1848195818097479718
:101B3000F8F48681978109970997D0F41092B4033D
:101B40001092B3038FEF9FEFDC018093AF0390936C
:101B5000B003A093B103B093B20381E08093B703C5
:101B60008DE090E09093AC038093AB03FF24F3945B
:101B700082E1EBEAF3E0A5E2B2E001900D928A95F2
:101B8000E1F7F1107EC18091BA039091BB038634D6
:101B90009105E0F1E091B803F091B903828193815E
:101BA0000C970B9798F5848195810997099770F5A3
:101BB000868197818C974F9748F580859185899785
:101BC0004D9720F50EEE12E026E638E04EEE52E09C
:101BD00065E080E20E9484058823C1F0E091B803AB
:101BE000F091B903E657FF4F208131812C50310924
:101BF0002B30310558F43092B4032092B30322E124
:101C000030E03093AC032093AB03F82E82E1EBEA93
:101C1000F3E0A5E2B2E001900D928A95E1F7F110B0
:101C200030C18091DC029091DD02809739F5E0911E
:101C3000B803F091B9038281938105970797F0F477
:101C40008481958109970997C8F40EEE12E028E087
:101C500037E04CE251E063E08EE00E948405882387
:101C600069F02EE030E03093B4032093B303A2E098
:101C7000B0E0B093AC03A093AB03F82E82E1EBEAA3
:101C8000F3E0A5E2B2E001900D928A95E1F7F11040
:101C9000F8C08090BA039090BB03B6E08B16910415
:101CA00008F460C00091B8031091B9030E5F1F4F94
:101CB00025EC3DE94CE151E8F3E0AF2EB12CAAE070
:101CC000FA2EF80184819581D8016D917D918D0165
:101CD000F89E6001F99ED00C1124DB01E3E0AA0F0D
:101CE000BB1FEA95E1F7F0E0E0E0CA16DB0688F0FA
:101CF000F69ED001F79EB00D112463E0880F991F66
:101D00006A95E1F7E2E0F0E0A817B90710F0E1E02A
:101D1000F0E063E971E080E091E00DD12F01FF0F69
:101D200066087708A30192012627372748275927F5
:101D3000BFEFAB1ABB0AA814B90419F62093AF037E
:101D40003093B0034093B1035093B2033092B40385
:101D50002092B303EFEFFFEFF093AC03E093AB03FC
:101D6000FF24F39482E1EBEAF3E0A5E2B2E0019014
:101D70000D928A95E1F7F11084C01092D8020E946A
:101D8000C60226CACA94CD2809F0DDCD440C551CE4
:101D9000661C771C689440F80F5F1F4F8ACD109324
:101DA000B4030093B3034092AF035092B003609228
:101DB000B1037092B2038CE090E09093AC038093F7
:101DC000AB03FF24F394BFCD8E579109883591055D
:101DD00008F08DCE4432510508F489CE8481958176
:101DE000CD978B9708F083CE06E212E020E436E030
:101DF00048E552E063E080E10E948405882309F40D
:101E000076CEE091B803F091B903EA5BFF4F2081F1
:101E100031812A5031092930310508F068CE20E19E
:101E200030E03093B4032093B30324E030E03093E8
:101E3000AC032093AB03F82E5ACE8434910508F4FA
:101E400097CE84819581815491098F9708F090CE27
:101E500000E312E020E436E040E352E063E080E299
:101E60000E948405882309F483CE3092B403209223
:101E7000B3032DE030E03093AC032093AB03F82E96
:101E800077CE8091290290912A02A0912B02B091E5
:101E90002C028F3F9F4FAF4FBF4F81F480912102A3
:101EA00090912202A0912302B091240280932902F2
:101EB00090932A02A0932B02B0932C0280912902C6
:101EC00090912A02A0912B02B0912C028F3620E92A
:101ED00092072FEFA207B105F1F08F31904EAF4F6F
:101EE000B10541F486E192E00E94690584E690E044
:101EF0000E947B048091290290912A02A0912B02DA
:101F0000B0912C028093210290932202A09323028D
:101F1000B093240232CF89E192E00E9469058CE9F6
:101F20009FEFE6CF2A30310508F4FCCA880C991CD3
:101F3000AA1CBB1C76CBDB018F939F932DD0BF9146
:101F4000AF91A29F800D911DA39F900DB29F900D08
:101F500011240895A1E21A2EAA1BBB1BFD010DC07E
:101F6000AA1FBB1FEE1FFF1FA217B307E407F50749
:101F700020F0A21BB30BE40BF50B661F771F881F25
:101F8000991F1A9469F760957095809590959B01BB
:101F9000AC01BD01CF01089509D0A59F900DB49F5C
:101FA000900DA49F800D911D11240895A29FB00152
:101FB000B39FC001A39F700D811D1124911DB29F7D
:101FC000700D811D1124911D0895AA1BBB1B51E1A9
:101FD00007C0AA1FBB1FA617B70710F0A61BB70B99
:101FE000881F991F5A95A9F780959095BC01CD013E
:101FF000089597FB072E16F4009406D077FD08D0BD
:10200000E4DF07FC05D03EF4909581959F4F08953D
:10201000709561957F4F0895052E97FB16F40094F7
:102020000FD057FD05D096DF07FC02D046F408C05C
:1020300050954095309521953F4F4F4F5F4F0895F4
:1020400090958095709561957F4F8F4F9F4F089524
:10205000EE0FFF1F881F8BBF0790F691E02D19949C
:04206000F894FFCF22
:1020640001000000005B02C601F301A70224020282
:0C2074000216020D0A005C2F002F5C0019
:00000001FF
