:1000000002C1000030C100002EC100002CC1000060
:100010002AC1000028C1000026C1000024C1000040
:1000200022C1000020C100001EC100001CC1000050
:100030001AC10000ABC6000016C1000014C10000C8
:1000400012C1000010C100000EC100000CC1000070
:100050000AC1000008C1000006C100004DC6000032
:1000600002C1000013C60000E8C50000FCC000008B
:10007000FAC00000F8C00000F6C00000F4C00000A4
:10008000F2C00000F0C00000EEC00000ECC00000B4
:10009000EAC00000E8C00000E6C00000E4C00000C4
:1000A000E2C00000E0C00000DEC00000DCC00000D4
:1000B000DAC00000D8C00000D6C00000D4C00000E4
:1000C000D2C00000D0C00000CEC00000CCC00000F4
:1000D000CAC00000C8C00000C6C00000C4C0000004
:1000E000C2C00000000020002300260029002C00D0
:1000F0002F00320000010000030106010901000089
:100100002100240027002A002D00300033000101C7
:100110000000040107010A01000022002500280058
:100120002B002E00310034000201000005010801FF
:100130000B0105050505070508080808020202026B
:100140000A0A080804040404010101010101010173
:100150000303030303030303040707070C0C0C0C3E
:100160000C0C0C0C02020202060606060606060627
:100170000B0B0B0B0B0B0B0B0102102020080810B4
:100180002040102040800201020108040201010207
:1001900004081020408080402010080402018004E0
:1001A000020180402010080402010804020101023B
:1001B0000408102040800102040810204080000044
:1001C0000A0B02090C0D0E080703040100000000D1
:1001D000000000000000000000000000000000001F
:1001E00000000000000000000000121110000000DC
:1001F00000000000000000000000000000000000FF
:10020000000000009D0711241FBECFEFD1E2DEBF2A
:10021000CDBF00E00CBF23E0ACE1B2E001C01D9215
:10022000A73DB207E1F712E0A0E0B2E0E4E6F0E2B9
:1002300000E00BBF02C007900D92AC31B107D9F7B7
:1002400011E0C3E0D1E000E006C021970109802F52
:10025000FE010E942810C230D10780E00807A9F7EC
:10026000D4D60C943010CCCEAF92BF92CF92DF9206
:10027000EF92FF920F931F93CF93DF937C016B015B
:100280005A01FC01808191812091BA033091BB0316
:10029000C1E0D0E08217930708F062C09C01220FF2
:1002A000331FE091B803F091B903E20FF31F00810F
:1002B0001181EC01C095D095C170DD272CE93FEF8D
:1002C00080FF02C024E630E02A0D3B1DC90163E433
:1002D00070E00E94E50F0617170750F0C90168E2A9
:1002E00070E00E94E50F6F5F7F4F6017710768F540
:1002F0002A0D3B1DC90163E470E00E94E50F06175B
:10030000170750F0C90168E270E00E94E50F6F5FC7
:100310007F4F6017710780F52A0D3B1DC90163E40B
:1003200070E00E94E50F0617170760F0C90168E248
:1003300070E00E94E50F6F5F7F4F23E030E06017B1
:10034000710728F4CFEFDFEF0BC021E030E0F601BA
:10035000808191810196821793078CF49183808329
:10036000CE01DF91CF911F910F91FF90EF90DF9021
:10037000CF90BF90AF90089522E030E0E8CF118297
:100380001082F701808191810196E8CFAF92BF92F0
:10039000CF92DF92EF92FF920F931F93CF93DF9351
:1003A0006C017B018B01040F151FEB015E01AE1880
:1003B000BF08C017D10759F06991D601ED91FC91A2
:1003C0000190F081E02DC6011995892B79F7C501BF
:1003D000DF91CF911F910F91FF90EF90DF90CF9021
:1003E000BF90AF900895FC01538D448D252F30E0D0
:1003F000842F90E0821B930B541710F0CF96089532
:1004000001970895FC01918D828D981761F0A28D5E
:10041000AE0FBF2FB11D5D968C91928D9F5F9F7324
:10042000928F90E008958FEF9FEF0895FC01918DDA
:10043000828D981731F0828DE80FF11D858D90E047
:1004400008958FEF9FEF0895FC01918D228D892FE4
:1004500090E0805C9F4F821B91098F7399270895CC
:100460008BE392E0F1DF21E0892B09F420E0822F79
:100470000895FC01A48DA80FB92FB11DA35ABF4F39
:100480002C91848D90E001968F739927848FA68993
:10049000B7892C93A089B1898C91837080648C93E7
:1004A000938D848D981306C00288F389E02D808196
:1004B0008F7D80830895EF92FF920F931F93CF93C8
:1004C000DF93EC0181E0888F9B8D8C8D98131AC08F
:1004D000E889F989808185FF15C09FB7F894EE8976
:1004E000FF896083E889F9898081837080648083D3
:1004F0009FBF81E090E0DF91CF911F910F91FF901E
:10050000EF900895F62E0B8D10E00F5F1F4F0F73C5
:100510001127E02E8C8D8E110BC00FB607FCFACF81
:10052000E889F989808185FFF5CFCE01A2DFF2CF7E
:10053000EB8DEC0FFD2FF11DE35AFF4FF0829FB7BB
:10054000F8940B8FEA89FB8980818062D0CFCF93AA
:10055000DF93EC01888D8823B1F0AA89BB89E889F3
:10056000F9898C9185FD03C0808186FD0CC00FB692
:1005700007FCF7CF8C9185FFF2CF808185FFEDCF0F
:10058000CE0177DFEACFDF91CF91089580E090E050
:10059000892B21F065DF81110E94000080E090E04E
:1005A000892B49F080E090E0892B29F00E9400001F
:1005B00081110E94000080E090E0892B49F080E0EA
:1005C00090E0892B29F00E94000081110E94000018
:1005D00080E090E0892B49F080E090E0892B29F0C1
:1005E0000E94000081110C94000008958150823116
:1005F00008F05AC0E82FF0E08827EE5FFC4F8F4FDD
:100600000C9428102203260314031A031E03540318
:1006100029032F03330339033D03410347034B03EE
:1006200054034F0355035903809180008F778093C3
:1006300080000895809180008F7DF9CF80918000A7
:10064000877FF5CF84B58F7784BD089584B58F7D7E
:10065000FBCF8091B0008F778093B0000895809198
:10066000B0008F7DF9CF809190008F7780939000BC
:100670000895809190008F7DF9CF80919000877FC1
:10068000F5CF8091A0008F778093A000089580918E
:10069000A0008F7DF9CF8091A000877FF5CF80915A
:1006A00020018F77809320010895809120018F7D14
:1006B000F9CF80912001877FF5CF1F93CF93DF93F0
:1006C000282F30E0F901E254FE4F8491F901E858F7
:1006D000FE4FD491F901EE5CFE4FC491CC23A1F002
:1006E000162F811183DFEC2FF0E0EE0FFF1FE85E85
:1006F000FE4FA591B4918FB7F894EC91111108C0F9
:10070000D095DE23DC938FBFDF91CF911F910895A9
:10071000DE2BF8CFCF93DF93EC018091C50390914E
:10072000C603029749F4C130D10509F43CC07CF5F9
:1007300060E0209709F438C08091C5039091C6030A
:10074000049749F4C130D10509F456C00CF036C005
:10075000209709F440C08091C5039091C603059786
:1007600009F0C6C0CA30D10508F0C2C0FE01882712
:10077000E354FC4F8F4F0C94281010041A042804E3
:100780003A04500452045804620470047604C230DF
:10079000D10591F060E0C330D10571F68091C903B5
:1007A0008CDF60E005C061E08091C90386DF61E015
:1007B0008091CB0382DFC0CF61E0F0CFC230D105A2
:1007C00009F1C330D10509F0C6CF61E08091C903BA
:1007D00074DF60E01CC061E08091C9036EDF60E0FF
:1007E0008091CB036ADF61E08091CD0366DF60E03A
:1007F0008091CF0362DFAFCF60E08091C9035DDFFE
:1008000061E0EECF60E08091C90357DF61E0809145
:10081000CB0353DF60E08091CD034FDF61E0E8CF91
:1008200060E08091C90349DF61E08091CB0345DF3F
:1008300061E009C060E08091C9033FDF61E0809121
:10084000CB033BDF60E08091CD0337DF60E00DC07C
:1008500060E08091C90331DF61E08091CB032DDF3F
:1008600060E08091CD0329DF61E08091CF0325DF37
:1008700061E011C060E08091C9031FDF61E08091F9
:10088000CB031BDF60E08091CD0317DF61E0809137
:10089000CF0313DF60E08091D103DF91CF910DCFC3
:1008A00061E0E9CF61E08091C90307DF60E0E7CF55
:1008B00061E08091C90301DF60E08091CB03FDDE40
:1008C00061E0E1CF61E08091C903F7DE60E08091F3
:1008D000CB03F3DE61E08091CD03EFDE60E0D7CFA4
:1008E00061E08091C903E9DE60E09FCF60E0F9CF6D
:1008F000DF91CF9108958F929F92AF92BF92EF9226
:10090000FF920F931F93CF93DF93EC0197FF04C0E7
:10091000CC27DD27C81BD90B181619060CF081C08F
:1009200081E090E09093BE038093BD0304E010E06B
:100930005AE0E52EF12C209709F48FC03FB7F894C8
:100940008091370290913802A0913902B0913A0219
:1009500026B5A89B05C02F3F19F00196A11DB11D1A
:100960003FBFBA2FA92F982F8827820F911DA11D55
:10097000B11D42E0880F991FAA1FBB1F4A95D1F7EE
:100980004091D3035091D4036091D5037091D60365
:100990004C015D01841A950AA60AB70A4091BF036B
:1009A0005091C0036091C1037091C20384169506F3
:1009B000A606B70608F4BFCF8093D3039093D40361
:1009C000A093D503B093D6038091C7039091C80339
:1009D0002091BD033091BE032130310551F50196C0
:1009E0009093C8038093C7032091C3033091C4033D
:1009F0008217930721F41092C8031092C70321971E
:100A00008091C7039091C8032091C5033091C6031C
:100A1000B7012530310509F0B8010E94F90F7ADEDF
:100A20008ACF892B09F482CF1092BE031092BD03A6
:100A30007DCF892B41F48091C3039091C40390939F
:100A4000C8038093C7038091C7039091C80301979F
:100A50009093C8038093C703D2CFDF91CF911F91AA
:100A60000F91FF90EF90BF90AF909F908F9008955F
:100A7000CF93DF9390E0FC01E858FE4F24918E5C09
:100A80009E4FFC0184918823D1F090E0880F991F3C
:100A9000FC01E250FF4FA591B491FC01E85EFE4FCE
:100AA000C591D49161110EC09FB7F8948C91E22F3B
:100AB000E0958E238C932881E223E8839FBFDF910A
:100AC000CF9108958FB7F894EC91E22BEC938FBF00
:100AD000F6CFCF93DF93FC0101900020E9F7319727
:100AE000AF01481B590BBC018BE392E04FDCEC01DA
:100AF00042E050E063E172E08BE392E047DC8C0F70
:100B00009D1FDF91CF9108954F925F926F927F92D8
:100B10008F929F92AF92BF92CF92DF92EF92FF920D
:100B20000F931F93CF93DF93F82FE62FC090B80356
:100B3000D090B9034A0184E6880E911C83E4E82E24
:100B4000F12CC401B7010E94E50F5B01C8E2D0E0BF
:100B5000C401BE010E94E50F2B018FEF481A580A0D
:100B600024563109C901B7010E94E50F4B01C901A3
:100B7000BE010E94E50F3B018FEF681A780A045608
:100B80001109C801B7010E94E50F9B01C801BE0110
:100B90000E94E50F6F5F7F4FFF0FFE0F80E090E038
:100BA000DC01CE2FD0E0CC0FDD1FCC0DDD1D488148
:100BB00059814A155B05B8F144165506A0F1C1E00C
:100BC000CE0FD0E0CC0FDD1FCC0DDD1D488159814B
:100BD0004815590528F16416750638F1880F991FD4
:100BE000AA1FBB1F8160EE5FEF13DBCF8093AF03C3
:100BF0009093B003A093B103B093B20381E0DF916F
:100C0000CF911F910F91FF90EF90DF90CF90BF9009
:100C1000AF909F908F907F906F905F904F900895CE
:100C20004217530710F480E0EACF64177507D8F332
:100C3000880F991FAA1FBB1FD6CF1F920F920FB606
:100C40000F9211240BB60F922F933F934F935F9304
:100C50006F937F938F939F93AF93BF93EF93FF9384
:100C60008BE392E006DCFF91EF91BF91AF919F91F2
:100C70008F917F916F915F914F913F912F910F9045
:100C80000BBE0F900FBE0F901F9018951F920F92E2
:100C90000FB60F9211240BB60F922F938F939F9341
:100CA000EF93FF93E0914B02F0914C028081E09131
:100CB0005102F091520282FD1DC090818091540238
:100CC0008F5F8F7320915502821741F0E09154029B
:100CD000F0E0E55CFD4F958F80935402FF91EF911A
:100CE0009F918F912F910F900BBE0F900FBE0F9081
:100CF0001F9018958081F2CF1F920F920FB60F921E
:100D000011242F933F938F939F93AF93BF93809121
:100D10001D0290911E02A0911F02B09120023091FD
:100D20001C0223E0230F2D3758F50196A11DB11D9C
:100D300020931C0280931D0290931E02A0931F0219
:100D4000B09320028091370290913802A09139022D
:100D5000B0913A020196A11DB11D80933702909384
:100D60003802A0933902B0933A02BF91AF919F919C
:100D70008F913F912F910F900FBE0F901F9018955C
:100D800026E8230F0296A11DB11DD2CF1F920F920C
:100D90000FB60F9211240BB60F922F933F934F93E0
:100DA0005F936F937F938F939F93AF93BF93CF93F3
:100DB000DF93EF93FF932091D90230E0F901E254E1
:100DC000FE4F8491F901E858FE4FD491F901EE5C91
:100DD000FE4FC491CC2371F0811108DCEC2FF0E0C0
:100DE000EE0FFF1FEC51FF4FA591B491EC91ED2355
:100DF00021E009F420E04091DE025091DF024F5FD4
:100E00005F4F5093DF024093DE028091DC029091AD
:100E1000DD028536910530F031E03093AA0333E0EE
:100E20003093D8023091D80231113DC0211107C052
:100E30004436510528F51092DF021092DE028091AF
:100E4000DB02882341F08091DA0221116FC061E05A
:100E500081116FC02F9AFF91EF91DF91CF91BF91D8
:100E6000AF919F918F917F916F915F914F913F9142
:100E70002F910F900BBE0F900FBE0F901F901895E3
:100E80001092AA0381E090E09093DD028093DC024F
:100E90005093E1024093E0021092DF021092DE02D2
:100EA0008093D802CCCF3091D8023130B1F42130C8
:100EB00031F6BC016F5F7F4F7093DD026093DC02FF
:100EC000880F991FFC01E052FD4F5183408310921F
:100ED000DF021092DE0282E0E3CF3091D80232309E
:100EE000E1F4211114C0BC016F5F7F4F7093DD02EC
:100EF0006093DC02880F991FFC01E052FD4F518383
:100F000040831092DF021092DE0281E0C9CF4536A5
:100F1000510508F494CF83E0C3CF8091D802833089
:100F200009F08DCF222309F486CF89CF882319F0C9
:100F300060E0C3DB90CF2F988ECF0F931F93CF939A
:100F4000DF93EBE3F2E01382128288EE93E0A0E0FD
:100F5000B0E084839583A683B78385E092E0918394
:100F6000808385EC90E09587848784EC90E0978778
:100F7000868780EC90E0918B808B81EC90E0938B66
:100F8000828B82EC90E0958B848B86EC90E0978B43
:100F9000868B118E128E138E148ECDEBD3E01B86B2
:100FA0001A86198218821E8A1F8A188E198E86EF59
:100FB00097E09F838E8304E010E01D870C8785E017
:100FC00090E09F878E8786E090E0998B888B87E002
:100FD00090E09B8B8A8B61E084E04ADD61E08E8546
:100FE00047DD61E0888944DD61E08A8941DD1D8A51
:100FF0001C8A19870887E8EDF2E08BE08183138271
:10100000DF91CF911F910F910895CF93DF9300D07F
:101010001F92CDB7DEB7789484B5826084BD84B565
:10102000816084BD85B5826085BD85B5816085BDE3
:1010300080916E00816080936E001092810080919B
:101040008100826080938100809181008160809323
:101050008100809180008160809380008091B10048
:1010600084608093B1008091B00081608093B00073
:1010700080919100826080939100809191008160C5
:101080008093910080919000816080939000809186
:10109000A10082608093A1008091A1008160809373
:1010A000A1008091A00081608093A0008091210127
:1010B00082608093210180912101816080932101D0
:1010C0008091200181608093200180917A0084606A
:1010D00080937A0080917A00826080937A00809178
:1010E0007A00816080937A0080917A008068809392
:1010F0007A001092C1002091C3033091C403032EE3
:10110000000C440B550B60E077E883E993E084D74B
:10111000CA01B9012AE030E040E050E07DD72093D9
:10112000BF033093C0034093C1035093C203E091C7
:101130004B02F0914C0282E08083E0914702F091F3
:1011400048021082E0914902F0914A029FEC90839C
:1011500010925302E0914F02F091500296E090837A
:10116000E0914D02F0914E02908190619083E09168
:101170004D02F0914E02908198609083E0914D0273
:10118000F0914E02908190689083E0914D02F09131
:101190004E0290819F7D9083F8948093B00080935D
:1011A000B10094E69093B3001092B2008093700067
:1011B00078941092D80260E08091D90259DC81E0E5
:1011C0008093DB0261E08DE053DCF0E22F2E312CC6
:1011D0008091D802833009F0D2C520EE32E03093FE
:1011E000B9032093B8038091DC029091DD029093C3
:1011F000BB038093BA0321E03091AA03311101C0EF
:1012000020E02093BC031092AE031092AD03109225
:10121000B7032091E2023091E302275831092E35BD
:101220003105E0F0F12C82E1EBEAF3E0A5E2B2E077
:1012300001900D928A95E1F7F11023C68091DC02AE
:101240009091DD028032910509F465C080369105E8
:1012500009F0CBC073E0872E912C60C084309105DB
:1012600049F58091E4029091E50280974797D0F686
:101270008091E6029091E7020997099798F61092FB
:10128000B4031092B3038FEF9FEFDC018093AF03A1
:101290009093B003A093B103B093B20381E0809325
:1012A000B70389E090E09093AC038093AB03FF24F5
:1012B000F394B9CF8434910508F4B4CF8091E4025B
:1012C0009091E502815491098F9708F0ABCF00E32C
:1012D00012E02AE936E040E352E063E080E214DC09
:1012E000F82E882309F49ECFE091B803F091B9035A
:1012F000EA57FF4F808191810997099708F092CFB3
:101300003092B4032092B30389E090E09093AC0351
:101310008093AB0388CF88248394912CE091B80309
:10132000F091B903828193810397059708F05DC01E
:10133000848195818931910508F451C08C9708F01A
:1013400054C0BB24B394412C512C3201D12CC12C5C
:101350000BE113E02DE037E04AEF50E06B2D85E024
:10136000D3DB882309F441C08091AF039091B0038F
:101370009093AE038093AD032DE037E04AEF50E049
:1013800065E06B0D88E0C0DB882379F14091AF0305
:101390005091B0036091B1037091B20341145104B4
:1013A0006104710429F04416550666067706E9F4CF
:1013B0002A013B0140949FEFC91AD90AA6E0BA0E50
:1013C0008C149D0429F62FE030E03093B403209371
:1013D000B3033093AC032093AB03F82E06C08A30DE
:1013E000910518F0439708F4ACCF82E1EBEAF3E003
:1013F000A5E2B2E001900D928A95E1F7F11041C5A6
:101400004091BA035091BB034032510508F459C0D2
:10141000E091B803F091B90386AD97AD03970597B6
:1014200008F04FC084AD95AD0897099708F049C002
:1014300020813181A2E3B0E0B9D56135734C8105DB
:1014400091050CF4ADC0DF01D49690E080E02D91C1
:101450003C9111972831310508F497C02B323105A2
:1014600080F5880F991F81601497AE17BF0779F731
:101470002DE030E03093B4032093B3039C0120723D
:101480003327215031093093AE032093AD0325E07B
:10149000969587952A95E1F7B0E0A0E08093AF0399
:1014A0009093B003A093B103B093B20380E190E0B6
:1014B0009093AC038093AB0381E080930002FF2400
:1014C000F39482E1EBEAF3E0A5E2B2E001900D9241
:1014D0008A95E1F7F110D5C44A31510518F1E09130
:1014E000B803F091B903808191810A9708F078C020
:1014F0001092B4031092B3038FEF9FEFDC0180933F
:10150000AF039093B003A093B103B093B20381E013
:101510008093B703AFEFBFEFB093AC03A093AB03DF
:10152000FF24F39482E1EBEAF3E0A5E2B2E001905C
:101530000D928A95E1F7F110A4C44A31510508F4DF
:10154000DEC0E091B803F091B903808191814097AA
:1015500008F089C01092B4031092B3038FEF9FEF8D
:10156000DC018093AF039093B003A093B103B093D9
:10157000B20381E08093B7038EE090E09093AC03D8
:101580008093AB03FF24F394BAC02830310508F4EC
:1015900098CF2131310508F094CF880F991F64CF7F
:1015A00080910002811119C01092B4031092B3030C
:1015B0008FEF9FEFDC018093AF039093B003A09374
:1015C000B103B093B20381E08093B7038FE090E062
:1015D0009093AC038093AB0372CF1092000271CF53
:1015E0008281938185974B9708F09CCF8481958168
:1015F0000797079708F096CF812C912C540183E030
:1016000090E0268137812331310508F48BC42232E2
:10161000310508F087CF880C991CAA1CBB1C689464
:1016200080F820853185275031092730310508F0B1
:1016300079CF029634968417950718F38CE090E0E2
:101640009093B4038093B3038092AF039092B0035E
:10165000A092B103B092B20381E190E09093AC0309
:101660008093AB035DCF82819381C597879708F004
:1016700046C084819581C597879708F040C06091E6
:10168000DC027091DD0283E090E0812C912C54010A
:101690009C012F5F3F4F2617370718F526813781AA
:1016A0002C5031092B303105E0F42085318525326D
:1016B000310560F02034310510F5880C991CAA1C06
:1016C000BB1C689480F802963496E2CF2B3031052B
:1016D000B0F02631310598F4880C991CAA1CBB1C6B
:1016E000F2CF0197969587959093B4038093B303B7
:1016F0000C9708F06CC01092B4031092B30382E10F
:10170000EBEAF3E0A5E2B2E001900D928A95E1F7F1
:10171000F110B7C31C821B82A1E0B0E0BA83A98399
:101720004D30510508F479C049E753E0BE016D5FC3
:101730007F4FCE0101960E943401892B09F06DC0C4
:1017400049E753E0BE016D5F7F4FCE0101960E94D5
:101750003401019709F061C049E753E0BE016D5FB4
:101760007F4FCE0101960E9434018C01892B09F034
:1017700054C0812C912C54012091BA033091BB03A9
:1017800089819A8182179307A0F549E753E0BE014A
:101790006D5F7F4FCE0101960E9434016C0149E7D5
:1017A00053E0BE016D5F7F4FCE0101960E94340170
:1017B000B1E0CB16D104A1F4892B79F5880C991CE2
:1017C000AA1CBB1C689480F80F5F1F4FD5CF809276
:1017D000AF039092B003A092B103B092B203CCCE0B
:1017E000CD28D9F40197C9F4880C991CAA1CBB1CFC
:1017F000EBCF1093B4030093B3038092AF039092A6
:10180000B003A092B103B092B2038BE090E090934A
:10181000AC038093AB03FF24F39482E1EBEAF3E0A3
:10182000A5E2B2E001900D928A95E1F7F11029C38B
:101830001C821B82E1E0F0E0FA83E9838091BA0325
:101840009091BB03892B09F47EC0E091B803F0911D
:10185000B9038281938189974E9708F074C022E082
:1018600030E03A832983848195810B970A9708F0A9
:101870006AC083E090E09A8389834CEB51E0BE011B
:101880006D5F7F4FCE0101960E9434018C01892B40
:1018900009F059C04CEB51E0BE016D5F7F4FCE01A6
:1018A00001960E943401019709F04DC0412C512C42
:1018B00032012091BA033091BB0389819A8182174A
:1018C000930708F06CC24CEB51E0BE016D5F7F4F97
:1018D000CE0101960E9434015C010330110539F1FB
:1018E0004CEB51E0BE016D5F7F4FCE0101960E942F
:1018F00034016C010330110561F44CEB51E0BE0181
:101900006D5F7F4FCE0101960E943401C816D90643
:10191000D1F4A114B10409F435C2AA94AB2899F406
:10192000CD2889F4440C551C661C771C35C24CEB41
:1019300051E0BE016D5F7F4FCE0101960E943401E0
:10194000A816B90669F282E1EBEAF3E0A5E2B2E09B
:1019500001900D928A95E1F7F11093C28091BA033C
:101960009091BB0382369105B8F1E091B803F091F4
:10197000B90382819381C597879770F5848195819A
:101980004B97459748F500E911E02CED34E046EF20
:1019900051E063E080E1B8D88823F1F08091AF0393
:1019A0009091B0039093AE038093AD032CED34E09F
:1019B00046EF51E063E180E2A7D8882369F02AE08E
:1019C00030E03093AC032093AB0320E330E030935E
:1019D000B4032093B303F82E82E1EBEAF3E0A5E22F
:1019E000B2E001900D928A95E1F7F1104AC2809120
:1019F000DC029091DD02CC97A8F1E091B803F09160
:101A0000B903828193818E5791098835910550F5EC
:101A100084819581CD978B9728F506E212E020E42A
:101A200036E048E552E063E08CE16ED88823D1F0DF
:101A3000E091B803F091B903EA58FF4F208131815A
:101A40002A5031092930310568F42CE130E0309317
:101A5000B4032093B30326E030E03093AC0320932B
:101A6000AB03F82E82E1EBEAF3E0A5E2B2E00190ED
:101A70000D928A95E1F7F11004C24091BA0350919A
:101A8000BB03E091B803F091B903828193814232A4
:101A9000510509F099C19C012A50310929303105BD
:101AA00008F092C1DF01AE5BBF4F2D913C912A50EF
:101AB00031092930310508F087C11092B403109222
:101AC000B3038FEF9FEFDC018093AF039093B003DC
:101AD000A093B103B093B20381E08093B70384E095
:101AE00090E09093AC038093AB03FF24F39482E1E6
:101AF000EBEAF3E0A5E2B2E001900D928A95E1F7FE
:101B0000F110BFC1E091B803F091B90382819381D4
:101B100084549109C19760F58091DC029091DD02B7
:101B20008430910509F089C1848195818097479718
:101B3000F8F48681978109970997D0F41092B4033D
:101B40001092B3038FEF9FEFDC018093AF0390936C
:101B5000B003A093B103B093B20381E08093B703C5
:101B60008DE090E09093AC038093AB03FF24F3945B
:101B700082E1EBEAF3E0A5E2B2E001900D928A95F2
:101B8000E1F7F1107EC18091BA039091BB038634D6
:101B90009105E0F1E091B803F091B903828193815E
:101BA0000C970B9798F5848195810997099770F5A3
:101BB000868197818C974F9748F580859185899785
:101BC0004D9720F50EEE12E026E638E04EEE52E09C
:101BD00065E080E20E9484058823C1F0E091B803AB
:101BE000F091B903E657FF4F208131812C50310924
:101BF0002B30310558F43092B4032092B30322E124
:101C000030E03093AC032093AB03F82E82E1EBEA93
:101C1000F3E0A5E2B2E001900D928A95E1F7F110B0
:101C200030C18091DC029091DD02809739F5E0911E
:101C3000B803F091B9038281938105970797F0F477
:101C40008481958109970997C8F40EEE12E028E087
:101C500037E04CE251E063E08EE00E948405882387
:101C600069F02EE030E03093B4032093B303A2E098
:101C7000B0E0B093AC03A093AB03F82E82E1EBEAA3
:101C8000F3E0A5E2B2E001900D928A95E1F7F11040
:101C9000F8C08090BA039090BB03B6E08B16910415
:101CA00008F460C00091B8031091B9030E5F1F4F94
:101CB00025EC3DE94CE151E8F3E0AF2EB12CAAE070
:101CC000FA2EF80184819581D8016D917D918D0165
:101CD000F89E6001F99ED00C1124DB01E3E0AA0F0D
:101CE000BB1FEA95E1F7F0E0E0E0CA16DB0688F0FA
:101CF000F69ED001F79EB00D112463E0880F991F66
:101D00006A95E1F7E2E0F0E0A817B90710F0E1E02A
:101D1000F0E063E971E080E091E00DD12F01FF0F69
:101D200066087708A30192012627372748275927F5
:101D3000BFEFAB1ABB0AA814B90419F62093AF037E
:101D40003093B0034093B1035093B2033092B40385
:101D50002092B303EFEFFFEFF093AC03E093AB03FC
:101D6000FF24F39482E1EBEAF3E0A5E2B2E0019014
:101D70000D928A95E1F7F11084C01092D8020E946A
:101D8000C60226CACA94CD2809F0DDCD440C551CE4
:101D9000661C771C689440F80F5F1F4F8ACD109324
:101DA000B4030093B3034092AF035092B003609228
:101DB000B1037092B2038CE090E09093AC038093F7
:101DC000AB03FF24F394BFCD8E579109883591055D
:101DD00008F08DCE4432510508F489CE8481958176
:101DE000CD978B9708F083CE06E212E020E436E030
:101DF00048E552E063E080E10E948405882309F40D
:101E000076CEE091B803F091B903EA5BFF4F2081F1
:101E100031812A5031092930310508F068CE20E19E
:101E200030E03093B4032093B30324E030E03093E8
:101E3000AC032093AB03F82E5ACE8434910508F4FA
:101E400097CE84819581815491098F9708F090CE27
:101E500000E312E020E436E040E352E063E080E299
:101E60000E948405882309F483CE3092B403209223
:101E7000B3032DE030E03093AC032093AB03F82E96
:101E800077CE8091290290912A02A0912B02B091E5
:101E90002C028F3F9F4FAF4FBF4F81F480912102A3
:101EA00090912202A0912302B091240280932902F2
:101EB00090932A02A0932B02B0932C0280912902C6
:101EC00090912A02A0912B02B0912C028F3620E92A
:101ED00092072FEFA207B105F1F08F31904EAF4F6F
:101EE000B10541F486E192E00E94690584E690E044
:101EF0000E947B048091290290912A02A0912B02DA
:101F0000B0912C028093210290932202A09323028D
:101F1000B093240232CF89E192E00E9469058CE9F6
:101F20009FEFE6CF2A30310508F4FCCA880C991CD3
:101F3000AA1CBB1C76CBDB018F939F932DD0BF9146
:101F4000AF91A29F800D911DA39F900DB29F900D08
:101F500011240895A1E21A2EAA1BBB1BFD010DC07E
:101F6000AA1FBB1FEE1FFF1FA217B307E407F50749
:101F700020F0A21BB30BE40BF50B661F771F881F25
:101F8000991F1A9469F760957095809590959B01BB
:101F9000AC01BD01CF01089509D0A59F900DB49F5C
:101FA000900DA49F800D911D11240895A29FB00152
:101FB000B39FC001A39F700D811D1124911DB29F7D
:101FC000700D811D1124911D0895AA1BBB1B51E1A9
:101FD00007C0AA1FBB1FA617B70710F0A61BB70B99
:101FE000881F991F5A95A9F780959095BC01CD013E
:101FF000089597FB072E16F4009406D077FD08D0BD
:10200000E4DF07FC05D03EF4909581959F4F08953D
:10201000709561957F4F0895052E97FB16F40094F7
:102020000FD057FD05D096DF07FC02D046F408C05C
:1020300050954095309521953F4F4F4F5F4F0895F4
:1020400090958095709561957F4F8F4F9F4F089524
:10205000EE0FFF1F881F8BBF0790F691E02D19949C
:04206000F894FFCF22
:1020640001000000005B02C601F301A70224020282
:0C2074000216020D0A005C2F002F5C0019
:020000023000CC
:10E000000D9489F10D94B2F10D94B2F10D94B2F129
:10E010000D94B2F10D94B2F10D94B2F10D94B2F1F0
:10E020000D94B2F10D94B2F10D94B2F10D94B2F1E0
:10E030000D94B2F10D94B2F10D94B2F10D94B2F1D0
:10E040000D94B2F10D94B2F10D94B2F10D94B2F1C0
:10E050000D94B2F10D94B2F10D94B2F10D94B2F1B0
:10E060000D94B2F10D94B2F10D94B2F10D94B2F1A0
:10E070000D94B2F10D94B2F10D94B2F10D94B2F190
:10E080000D94B2F10D94B2F10D94B2F10D94B2F180
:10E090000D94B2F10D94B2F10D94B2F10D94B2F170
:10E0A0000D94B2F10D94B2F10D94B2F10D94B2F160
:10E0B0000D94B2F10D94B2F10D94B2F10D94B2F150
:10E0C0000D94B2F10D94B2F10D94B2F10D94B2F140
:10E0D0000D94B2F10D94B2F10D94B2F10D94B2F130
:10E0E0000D94B2F141546D656761323536300041AF
:10E0F000726475696E6F206578706C6F72657220DE
:10E1000073746B3530305632206279204D4C530099
:10E11000426F6F746C6F616465723E004875683F52
:10E1200000436F6D70696C6564206F6E203D200048
:10E130004350552054797065202020203D20005FF9
:10E140005F4156525F415243485F5F3D2000415658
:10E1500052204C696243205665723D20004743437C
:10E160002056657273696F6E203D20004350552024
:10E1700049442020202020203D20004C6F7720663D
:10E18000757365202020203D20004869676820665F
:10E190007573652020203D200045787420667573D6
:10E1A00065202020203D20004C6F636B2066757336
:10E1B000652020203D20004D617220203720323024
:10E1C000313300312E362E3800342E332E350056A2
:10E1D00023202020414444522020206F7020636F70
:10E1E00064652020202020696E73747275637469E1
:10E1F0006F6E2061646472202020496E74657272B3
:10E20000757074006E6F20766563746F7200726A49
:10E210006D702020006A6D70200057686174207056
:10E220006F72743A00506F7274206E6F7420737541
:10E2300070706F72746564004D7573742062652030
:10E2400061206C6574746572002000577269747483
:10E25000696E672045450052656164696E672045B7
:10E26000450045452065727220636E743D00504F35
:10E27000525400303D5A65726F2061646472003FF1
:10E280003D43505520737461747300403D454550C3
:10E29000524F4D207465737400423D426C696E6B41
:10E2A000204C454400453D44756D70204545505215
:10E2B0004F4D00463D44756D7020464C415348001B
:10E2C000483D48656C70004C3D4C69737420492F83
:10E2D0004F20506F72747300513D51756974005234
:10E2E0003D44756D702052414D00563D73686F7707
:10E2F00020696E7465727275707420566563746FF0
:10E30000727300593D506F727420626C696E6B00BD
:10E310002A0011241FBECFEFD1E2DEBFCDBF01E046
:10E320000CBF12E0A0E0B2E0EEE1FDEF03E00BBFB6
:10E3300002C007900D92A030B107D9F712E0A0E01B
:10E34000B2E001C01D92AE30B107E1F70F9460F367
:10E350000D948DFE01E20EBF0FEF0DBF11241FBE05
:10E360000D9460F30D9400F020E030E040ED57E0B4
:10E3700005C0FA013197F1F72F5F3F4F2817390792
:10E38000C0F308959C01260F311DC901A0E0B0E043
:10E390002F5F3F4FABBFFC018791882361F08093D3
:10E3A000C6008091C00086FFFCCF8091C0008064D1
:10E3B0008093C000EACF08958DE08093C6008091DD
:10E3C000C00086FFFCCF8091C00080648093C000B5
:10E3D0008AE08093C6008091C00086FFFCCF8091C8
:10E3E000C00080648093C00008950F94C2F10F9420
:10E3F000DCF10895FC019081992359F09093C600B7
:10E400008091C00086FFFCCF8091C0008064809323
:10E41000C0003196992379F70895282F982F929567
:10E420009F70892F805D8A3308F0895F8093C600D2
:10E430008091C00086FFFCCF8091C00080648093F3
:10E44000C000822F8F70982F905D9A3308F0995FEB
:10E450009093C6008091C00086FFFCCF8091C000E1
:10E4600080648093C00008959C01FB01853691056E
:10E470001CF46330710594F0C90164E670E00F94F8
:10E480002EFE605D7F4F6093C6008091C00086FFC6
:10E49000FCCF8091C00080648093C0002B30310598
:10E4A00014F43297B4F0C90164E670E00F942EFEC4
:10E4B0006AE070E00F942EFE605D7F4F6093C600AF
:10E4C0008091C00086FFFCCF8091C0008064809363
:10E4D000C000C9016AE070E00F942EFEC0968093E0
:10E4E000C6008091C00086FFFCCF8091C000806490
:10E4F0008093C00008951F93182F8EE692EE60E07F
:10E500000F94C2F11093C6008091C00086FFFCCF2B
:10E510008091C00080648093C0000F94DCF11F9153
:10E5200008952F923F924F925F926F927F928F92B7
:10E530009F92AF92BF92CF92DF92EF92FF920F9392
:10E540001F93DF93CF93CDB7DEB762970FB6F894E2
:10E55000DEBF0FBECDBF382E622ECA01DB015C01CB
:10E560006D01772420E2222E2E010894411C511CBB
:10E570008BC081E0A81680E0B80681E0C80680E084
:10E58000D80628F0C601AA27BB270F940DF2BB2797
:10E59000AD2D9C2D8B2D0F940DF28A2D0F940DF225
:10E5A0002092C6008091C00086FFFCCF8091C00001
:10E5B00080648093C0009DE29093C6008091C0006B
:10E5C00086FFFCCF8091C00080648093C0002092C1
:10E5D000C6008091C00086FFFCCF8091C00080649F
:10E5E0008093C00019828601750188249924A1E0D6
:10E5F0003A1651F03A1620F0B2E03B1661F409C029
:10E600000BBFF701779007C0C7010F9477FE782EF4
:10E6100002C0F7017080872D0F940DF22092C60082
:10E620008091C00086FFFCCF8091C0008064809301
:10E63000C000872D8052F401EF70F0708F3520F408
:10E64000E40DF51D708204C0E40DF51D8EE280839B
:10E650000894E11CF11C011D111D0894811C911CE2
:10E6600090E18916910409F0C2CF80E190E0A0E02A
:10E67000B0E0A80EB91ECA1EDB1E198AC2010F9493
:10E68000FAF10F94DCF16A94662009F072CF629679
:10E690000FB6F894DEBF0FBECDBFCF91DF911F91B3
:10E6A0000F91FF90EF90DF90CF90BF90AF909F9031
:10E6B0008F907F906F905F904F903F902F90089534
:10E6C0002F923F924F925F926F927F928F929F9282
:10E6D000AF92BF92CF92DF92EF92FF920F931F9370
:10E6E000DF93CF93CDB7DEB7CD53D1400FB6F894BB
:10E6F000DEBF0FBECDBF01E20EBF0FEF0DBF94B75F
:10E70000F894A89514BE80916000886180936000A1
:10E7100010926000789493FF05C0E0910002F091A0
:10E7200001021995279A2F9A8091C00082608093E8
:10E73000C00080E18093C40088E18093C1000000A4
:10E74000EE24FF24870144E0A42EB12CCC24DD2448
:10E7500024C0C5010197F1F70894E11CF11C011DCB
:10E76000111D21E2E2162EE4F20620E0020720E06D
:10E77000120718F031E0C32ED12CC801B70127ECE5
:10E780003BE140E050E00F9441FE611571058105C9
:10E79000910519F485B1805885B98091C00087FD35
:10E7A00003C0C114D104A9F2A6014F5F5F4FC25E3E
:10E7B000DE4F59834883CE51D140C25EDE4F8881FF
:10E7C0009981CE51D140019711F00D9410FEC05D9A
:10E7D000DE4F19821882C053D14060E0C15DDE4F28
:10E7E0001882CF52D14088249924C35DDE4F19820C
:10E7F0001882CD52D140C05EDE4F188219821A8233
:10E800001B82C052D140CE5CDE4F188219821A8220
:10E810001B82C253D140EE24FF2487010BBFF701B6
:10E8200007911691C45CDE4F19830883CC53D14005
:10E830000D940BFEC25EDE4F28813981CE51D1404E
:10E840002130310509F52091C600C25EDE4F1982E4
:10E850001882CE51D14022C02F5F3F4F4F4F5F4FA4
:10E86000213082E138078AE7480780E0580780F0C6
:10E87000C45CDE4FE881F981CC53D140EF5FFF4F9C
:10E8800019F0EE27FF27099420E030E040E050E047
:10E890008091C00087FFE0CF2091C600C35DDE4FAE
:10E8A00048815981CD52D1404F5F5F4FC35DDE4FEC
:10E8B00059834883CD52D140213209F063C64A3092
:10E8C000510508F05FC60894811C911C53E0851621
:10E8D000910409F059C600E010E018C081E280936D
:10E8E000C6008091C00086FFFCCF8091C00080648C
:10E8F0008093C0002F5F3F4F2931310579F70F9486
:10E90000DCF10F5F1F4F0530110519F020E030E0FA
:10E91000E5CF10920A0210920B0210920C02109294
:10E920000D02109206021092070210920802109235
:10E930000902109202021092030210920402109235
:10E9400005028FEE90EE60E00F94F5F180E191EE1C
:10E9500060E00F94C2F18091C00087FFFCCF9091DE
:10E96000C600903608F09F759032B8F09093C600BC
:10E970008091C00086FFFCCF8091C00080648093AE
:10E98000C000A0E2A093C6008091C00086FFFCCF2B
:10E990008091C00080648093C000983409F4D7C18E
:10E9A0009934B8F4923409F459C1933458F490333B
:10E9B00019F1903308F4E3C59F33A1F1903409F0C5
:10E9C000DEC5BDC0953409F470C1963409F0D7C5D1
:10E9D00098C1923509F42BC2933538F49C3409F46C
:10E9E000F5C1913509F0CBC518C2963509F445C279
:10E9F000993509F0C4C567C483E792EE62E00F94CD
:10EA0000F5F110920602109207021092080210927D
:10EA1000090210920A0210920B0210920C0210923C
:10EA20000D0213C18FE792EE62E00F94F5F18FEEC5
:10EA300090EE60E00F94F5F181E291EE60E00F94CA
:10EA4000C2F187EB91EE60E00F94F5F180E391EE77
:10EA500060E00F94C2F184EE90EE60E00F94F5F167
:10EA60008FE391EE60E00F94C2F186E090E061E008
:10EA700070E00F9434F20F94DCF18DE591EE60E0DC
:10EA80000F94C2F189EC91EE60E00F94F5F18EE401
:10EA900091EE60E00F94C2F183EC91EE60E00F9490
:10EAA000F5F18CE691EE60E00F94C2F18EE10F94E7
:10EAB0000DF288E90F940DF281E00F940DF20F949E
:10EAC000DCF18BE791EE60E00F94C2F119E0E0E039
:10EAD000F0E010935700E4918E2F0F940DF20F94F5
:10EAE000DCF18AE891EE60E00F94C2F1E3E0F0E03F
:10EAF00010935700E4918E2F0F940DF20F94DCF1D8
:10EB000089E991EE60E00F94C2F1E2E0F0E0109349
:10EB10005700E4918E2F0F940DF20F94DCF188EAE8
:10EB200091EE60E00F94C2F1E1E0F0E01093570045
:10EB30001491812F0F940DF20F94DCF107CF8BE825
:10EB400092EE62E00F94F5F18BE492EE60E00F94A8
:10EB5000F5F10F94DCF100E010E019C0C8016F2D51
:10EB60000F947FFEFF2031F489E492EE60E00F9471
:10EB7000C2F10BC0F092C6008091C00086FFFCCFAE
:10EB80008091C00080648093C0000F5F1F4FC80158
:10EB900081519F41A0E0B0E0ABBFFC01F790BAE229
:10EBA000FB1621F0E2E000301E07C1F60F94DCF105
:10EBB0000F94DCF187E592EE60E00F94F5F10F948D
:10EBC000DCF1CC24DD2400E010E01EC0C8010F946D
:10EBD00077FEF82E882331F489E492EE60E00F94FA
:10EBE000C2F10BC08093C6008091C00086FFFCCFAD
:10EBF0008091C00080648093C000FE1419F00894D6
:10EC0000C11CD11C0F5F1F4FC80181519F41A0E063
:10EC1000B0E0ABBFFC01E790FAE2EF1621F022E092
:10EC20000030120799F60F94DCF10F94DCF182E6C4
:10EC300092EE60E00F94C2F1C60161E070E00F94C3
:10EC400034F20F94DCF10F94DCF110920202109276
:10EC50000302109204021092050278CE89E992EE26
:10EC600062E00F94F5F1279A2F9A16C02F9880E052
:10EC700090E0E0EDF7E03197F1F7019684369105E9
:10EC8000C1F72F9A80E090E0E0EDF7E03197F1F7DF
:10EC9000019684369105C1F78091C00087FFE6CFC9
:10ECA0008091C00087FFFCCF64C485EA92EE62E0E9
:10ECB0000F94F5F140910202509103026091040219
:10ECC0007091050281E020E10F9491F2809102029F
:10ECD00090910302A0910402B091050280509F4FD1
:10ECE000AF4FBF4F8093020290930302A0930402A0
:10ECF000B093050280509041A040B04008F426CE69
:10ED0000A4CF83EB92EE62E00F94F5F140910602FE
:10ED100050910702609108027091090280E020E1A1
:10ED20000F9491F28091060290910702A09108023F
:10ED3000B091090280509F4FAF4FBF4F80930602A2
:10ED400090930702A0930802B0930902FFCD80ECD4
:10ED500092EE62E00F94F5F183E792EE60E00F949B
:10ED6000F5F18FE792EE60E00F94F5F18BE892EE0B
:10ED700060E00F94F5F189E992EE60E00F94F5F10F
:10ED800085EA92EE60E00F94F5F183EB92EE60E09D
:10ED90000F94F5F180EC92EE60E00F94F5F187ECC2
:10EDA00092EE60E00F94F5F188ED92EE60E00F9442
:10EDB000F5F18FED92EE60E00F94F5F18AEE92EEB0
:10EDC00060E00F94F5F183E093EEBDCD87EC92EE19
:10EDD00062E00F94F5F181E40F947BF282E40F94EA
:10EDE0007BF283E40F947BF284E40F947BF285E45E
:10EDF0000F947BF286E40F947BF287E40F947BF20E
:10EE000088E40F947BF28AE40F947BF28BE40F94F6
:10EE10007BF28CE40F947BF299CD88ED92EE62E068
:10EE20000F94F5F1772473948824992409C48FED05
:10EE300092EE62E00F94F5F140910A0250910B02BC
:10EE400060910C0270910D0282E020E10F9491F22A
:10EE500080910A0290910B02A0910C02B0910D02D8
:10EE600080509F4FAF4FBF4F80930A0290930B0289
:10EE7000A0930C02B0930D0269CD8AEE92EE62E08F
:10EE80000F94F5F184EE90EE60E00F94F5F18FECC5
:10EE900091EE60E00F94F5F1662477244301CC5D98
:10EEA000DE4F19821882C452D140D401C301B695F5
:10EEB000A79597958795CA5DDE4F88839983AA8326
:10EEC000BB83C652D140CC5DDE4FA881B981C4520C
:10EED000D1401196CC5DDE4FB983A883C452D14096
:10EEE000CD0162E070E00F9434F2B0E2B093C6005E
:10EEF0008091C00086FFFCCF8091C0008064809329
:10EF0000C000EDE2E093C6008091C00086FFFCCF18
:10EF10008091C00080648093C000F0E2F093C6004E
:10EF20008091C00086FFFCCF8091C00080648093F8
:10EF3000C000CA5DDE4FE880F9800A811B81C6529D
:10EF4000D140BB27A12F902F8F2D0F940DF2CA5DBA
:10EF5000DE4F8881C652D1400F940DF2B0E2FB2EF5
:10EF6000F092C6008091C00086FFFCCF8091C00067
:10EF700080648093C0000DE30093C6008091C000C0
:10EF800086FFFCCF8091C00080648093C00010E2B7
:10EF90001093C6008091C00086FFFCCF8091C00016
:10EFA00080648093C0008BBEF3012791C65DDE4F65
:10EFB0002883CA52D140A22EBB24CC24DD2408943D
:10EFC000611C711C811C911C8BBEF3018791282E42
:10EFD0003324442455240894611C711C811C911C09
:10EFE0008BBEF3013791C55DDE4F3883CB52D140E4
:10EFF0000894611C711C811C911C8BBEF30147910C
:10F00000C45DDE4F4883CC52D140ADEFEA2EAFEF66
:10F01000FA2EAFEF0A2FAFEF1A2F6E0C7F1C801E57
:10F02000911E142D032DF22CEE24EA0CFB1C0C1D5A
:10F030001D1D0F940DF220E22093C6008091C000A8
:10F0400086FFFCCF8091C00080648093C000C65DC5
:10F05000DE4F8881CA52D1400F940DF230E23093D6
:10F06000C6008091C00086FFFCCF8091C000806404
:10F070008093C000C45DDE4F8881CC52D1400F9494
:10F080000DF240E24093C6008091C00086FFFCCFA5
:10F090008091C00080648093C000C55DDE4F888190
:10F0A000CB52D1400F940DF250E25093C6008091A4
:10F0B000C00086FFFCCF8091C00080648093C000B8
:10F0C0008FEFE8168FEFF80680E0080780E018075A
:10F0D00031F484E092EE60E00F94C2F1DFC0D80119
:10F0E000C7018070907CA070B0708050904CA040A0
:10F0F000B040D1F52FEF3FE340E050E0E222F322B1
:10F1000004231523CA5DDE4FA880B980CA80DB8046
:10F11000C652D140AE0CBF1CC01ED11EAA0CBB1CD7
:10F12000CC1CDD1C8EE092EE60E00F94C2F1BB2798
:10F13000A12F902F8F2D0F940DF28E2D0F940DF285
:10F1400030E23093C6008091C00086FFFCCF8091F2
:10F15000C00080648093C0004EE34093C60080915D
:10F16000C00086FFFCCF87C08EE09EEFA0E0B0E03D
:10F17000E822F9220A231B239CE0E91694E9F90608
:10F1800090E0090790E0190709F088C0C45DDE4FE0
:10F19000A881CC52D140EA2EFF2400E010E0102FCD
:10F1A0000F2DFE2CEE24C55DDE4FB881CB52D14031
:10F1B000EB0EF11C011D111DD601C501817090706F
:10F1C000A070B070DC0199278827E80EF91E0A1F8D
:10F1D0001B1F20EF30E040E050E0A222B322C42207
:10F1E000D52241E1AA0CBB1CCC1CDD1C4A95D1F7F1
:10F1F000EA0CFB1C0C1D1D1D81E090E0A0E0B0E0BE
:10F20000282239224A225B2235E1220C331C441C7D
:10F21000551C3A95D1F7E20CF31C041D151D57013E
:10F220006801AA0CBB1CCC1CDD1C85E192EE60E0E1
:10F230000F94C2F1C801AA27BB270F940DF2BB2778
:10F24000A12F902F8F2D0F940DF28E2D0F940DF274
:10F2500090E29093C6008091C00086FFFCCF809121
:10F26000C00080648093C000AEE3A093C60080918C
:10F27000C00086FFFCCF8091C00080648093C000F6
:10F28000C601AA27BB270F940DF2BB27AD2D9C2DDD
:10F290008B2D0F940DF28A2D0F940DF20F94DCF14B
:10F2A000CC5DDE4FE881F981C452D140F99709F471
:10F2B0004DCBF4E0EF2EF12C012D112D6E0C7F1CA7
:10F2C000801E911EF2CD83E093EE62E00F94F5F183
:10F2D0008AE192EE60E00F94C2F18091C00087FF56
:10F2E000FCCF1091C6001F751093C6008091C0001E
:10F2F00086FFFCCF8091C00080648093C0000F9493
:10F30000DCF1812F81548A3108F036C1163409F4BA
:10F3100095C0173490F4133409F44EC0143430F40B
:10F320001134F1F0123409F01DC130C0143409F465
:10F3300059C0153409F016C16BC01A3409F4C4C0A1
:10F340001B3438F4173409F48FC0183409F00AC19B
:10F35000A1C01B3409F4D2C01C3409F003C1E8C0B9
:10F360008FEF81B90DC082B1809582B980E090E0C5
:10F37000E0EDF7E03197F1F70196883C9105C1F790
:10F380008091C00087FFEFCF12B8EFC08FEF84B934
:10F390000DC085B1809585B980E090E0E0EDF7E0A3
:10F3A0003197F1F70196883C9105C1F78091C00033
:10F3B00087FFEFCF15B8D9C08FEF87B90DC088B1DF
:10F3C000809588B980E090E0E0EDF7E03197F1F7C3
:10F3D0000196883C9105C1F78091C00087FFEFCF6F
:10F3E00018B8C3C08FEF8AB90DC08BB180958BB9A7
:10F3F00080E090E0E0EDF7E03197F1F70196883C8E
:10F400009105C1F78091C00087FFEFCF1BB8ADC059
:10F410008FEF8DB90DC08EB180958EB980E090E0F0
:10F42000E0EDF7E03197F1F70196883C9105C1F7DF
:10F430008091C00087FFEFCF1EB897C08FEF80BBD1
:10F440000DC081B3809581BB80E090E0E0EDF7E0F6
:10F450003197F1F70196883C9105C1F78091C00082
:10F4600087FFEFCF11BA81C08FEF83BB0DC084B38C
:10F47000809584BB80E090E0E0EDF7E03197F1F714
:10F480000196883C9105C1F78091C00087FFEFCFBE
:10F4900014BA6BC08FEF809301010FC080910201FD
:10F4A00080958093020180E090E0E0EDF7E03197F5
:10F4B000F1F70196883C9105C1F78091C00087FF64
:10F4C000EDCF1092020151C08FEF809304010FC065
:10F4D0008091050180958093050180E090E0E0ED4A
:10F4E000F7E03197F1F70196883C9105C1F78091DB
:10F4F000C00087FFEDCF1092050137C08FEF8093DA
:10F5000007010FC08091080180958093080180E079
:10F5100090E0E0EDF7E03197F1F70196883C910536
:10F52000C1F78091C00087FFEDCF109208011DC088
:10F530008FEF80930A010FC080910B01809580931B
:10F540000B0180E090E0E0EDF7E03197F1F70196F4
:10F55000883C9105C1F78091C00087FFEDCF1092E4
:10F560000B0103C085E292EEEEC98091C00087FFD7
:10F57000FCCF8091C600EAC988E392EEE4C98CE131
:10F5800091EEE1C988249924933011F1943028F444
:10F59000913089F09230B8F408C0953061F195301F
:10F5A000F0F0963009F048C043C02B3109F042C951
:10F5B00091E06BE13FC96227C15DDE4F2883CF52E6
:10F5C000D14092E037C9B22FA0E0622793E032C960
:10F5D000822F90E0A82BB92B622794E02BC92E3004
:10F5E00009F039C3622795E0C05DDE4F19821882A9
:10F5F000C053D1401FC9E1E0F0E0EC0FFD1FC05D3A
:10F60000DE4F08811981C053D140E00FF11F2083E4
:10F610000F5F1F4FC05DDE4F19830883C053D14079
:10F6200062270A171B0709F005C9D80196E002C92D
:10F63000261709F010C303C0973009F0FBC87724E0
:10F640009981933109F412C19431C8F4963009F4C8
:10F65000D8C0973050F4923009F406C1933009F4C1
:10F660006DC0913009F059C253C0913109F477C08F
:10F67000923108F0BBC0903109F04FC2F5C098310B
:10F6800009F487C0993150F4953109F4EFC09531F0
:10F6900008F4C6C1963109F040C2C2C19A3109F4DA
:10F6A0006CC09A3108F491C09B3109F45BC09D3164
:10F6B00009F033C29D81903359F48F81882311F46E
:10F6C0009EE11CC0813011F091E018C098E916C08D
:10F6D000892F807591F0903539F4E0E0F0E089E011
:10F6E0008093570094910AC0983539F4E3E0F0E034
:10F6F00089E080935700949101C090E01A821B82A8
:10F700008D818C831D829E831F8227E030E009C299
:10F710001A8288E08B8381E48C8386E58D8382E581
:10F720008E8389E48F8383E5888780E589878FE5E9
:10F730008A8782E38B872BE030E0F3C18A818139AD
:10F7400041F0823941F0803911F48FE005C080E04A
:10F7500003C082E001C08AE01A828B8344C0772410
:10F76000739482C08D81882311F48EE12CC0813086
:10F7700011F081E028C088E926C01A82E1E0F0E0BB
:10F7800089E08093570084918B831C8224E030E0D1
:10F79000C8C18B81803589F48C81883039F4E2E0EE
:10F7A000F0E089E08093570084910DC0E0E0F0E044
:10F7B00089E080935700849106C0E3E0F0E089E09F
:10F7C0008093570084911A82DFCF8D81836C99E0FA
:10F7D000E1E0F0E0082E90935700E89507B600FCB2
:10F7E000FDCF1A821B8223E030E09BC180EC8A832C
:10F7F000CE5CDE4F188219821A821B82C253D1401E
:10F800008EC18A8190E0A0E0B0E0582F44273327D2
:10F8100022278B8190E0A0E0B0E0DC0199278827C7
:10F82000282B392B4A2B5B2B8D8190E0A0E0B0E098
:10F83000282B392B4A2B5B2B8C8190E0A0E0B0E089
:10F84000BA2FA92F982F8827282B392B4A2B5B2BCF
:10F85000220F331F441F551FC05EDE4F288339839C
:10F860004A835B83C052D1401A8259C13A81C95C34
:10F87000DE4F3883C753D140CA5CDE4F1882C6536F
:10F88000D1408B81C82EDD24CA5CDE4F488159816E
:10F89000C653D140C42AD52A933109F082C0CE5C28
:10F8A000DE4F88819981AA81BB81C253D1408050AB
:10F8B000904CA340B04030F583E0CE5CDE4FE88052
:10F8C000F9800A811B81C253D140F70100935B008C
:10F8D00080935700E89507B600FCFDCFCE5CDE4F65
:10F8E000088119812A813B81C253D14000501F4FAA
:10F8F0002F4F3F4FCE5CDE4F088319832A833B8313
:10F90000C253D140C05EDE4F488159816A817B81FC
:10F91000C052D140DE011B9631E08C9111962C91A2
:10F9200011971296C75CDE4F2883C953D140C85C3B
:10F93000DE4F1882C853D14090E0C85CDE4FE881AA
:10F94000F981C853D1408E2B9F2B0C01FA01609393
:10F950005B0030935700E89511244E5F5F4F6F4F67
:10F960007F4F0EEFE02E0FEFF02ECE0CDF1CC114F8
:10F97000D10499F685E0C05EDE4F088119812A81A5
:10F980003B81C052D140F80120935B008093570027
:10F99000E89507B600FCFDCF81E180935700E8951C
:10F9A00035C0C05EDE4F88819981AA81BB81C0527B
:10F9B000D140B695A795979587957C018601ABE0D8
:10F9C000AA2EB12CAC0EBD1E0BC0D5016D915D01F0
:10F9D000C7010F947FFE0894E11CF11C01501040F8
:10F9E0000115110591F7A60160E070E0440F551F65
:10F9F000661F771FC05EDE4FE880F9800A811B8199
:10FA0000C052D1404E0D5F1D601F711F1A82C05E33
:10FA1000DE4F488359836A837B83C052D1407FC0C5
:10FA2000FA80C55CDE4FF882CB53D140C65CDE4F16
:10FA30001882CA53D1408B81C82EDD24C65CDE4FAC
:10FA400008811981CA53D140C02AD12A1A828981DA
:10FA5000BE016D5F7F4F843121F59601C05EDE4FA0
:10FA6000E880F9800A811B81C052D1400BBFF701A9
:10FA700087919691DB018C9311969C936E5F7F4FDB
:10FA8000D801C7010296A11DB11DC05EDE4F88835B
:10FA90009983AA83BB83C052D14022503040F1F6F3
:10FAA00036C0C05EDE4F288139814A815B81C052F9
:10FAB000D1400894C108D108760100E010E0089414
:10FAC000C11CD11C0894E11CF11C011D111DE20E8A
:10FAD000F31E041F151F21BDBB27A52F942F832FB5
:10FAE00082BD2F5F3F4F4F4F5F4FF89A80B5DB01CC
:10FAF0008D93BD012E153F054007510761F7C05E8C
:10FB0000DE4F288339834A835B83C052D1409601FC
:10FB10002D5F3F4FFB01108204C080EC8A8322E0FE
:10FB200030E08BE18093C6008091C00086FFFCCF5F
:10FB30008091C00080648093C000C15DDE4FF88179
:10FB4000CF52D140F093C6008091C00086FFFCCF19
:10FB50008091C00080648093C000432F3093C60022
:10FB60008091C00086FFFCCF8091C00080648093AC
:10FB7000C000922F2093C6008091C00086FFFCCF6A
:10FB80008091C00080648093C0008EE08093C600A6
:10FB90008091C00086FFFCCF8091C000806480937C
:10FBA000C00065E1C15DDE4FE880CF52D1406E25D7
:10FBB00069276427FE01319610C090819093C6009A
:10FBC0008091C00086FFFCCF31968091C000806498
:10FBD0008093C0006927215030402115310569F715
:10FBE0006093C6008091C00086FFFCCF8091C0006A
:10FBF00080648093C00085B1805885B9772081F4F6
:10FC0000C15DDE4F0881CF52D1400F5FC15DDE4F35
:10FC10000883CF52D14090E0A0E0B0E00D941AF4F8
:10FC200027982F9880E090E020ED37E0F901319798
:10FC3000F1F7019684369105C9F700008091C00064
:10FC40008D7F8093C00081E180935700E895EE2777
:10FC5000FF270994FFCF90E00D941AF497FB092E2B
:10FC600007260AD077FD04D02ED006D000201AF443
:10FC7000709561957F4F0895F6F7909581959F4F08
:10FC80000895A1E21A2EAA1BBB1BFD010DC0AA1FDD
:10FC9000BB1FEE1FFF1FA217B307E407F50720F0F5
:10FCA000A21BB30BE40BF50B661F771F881F991F70
:10FCB0001A9469F760957095809590959B01AC01B9
:10FCC000BD01CF010895AA1BBB1B51E107C0AA1FAC
:10FCD000BB1FA617B70710F0A61BB70B881F991FED
:10FCE0005A95A9F780959095BC01CD010895F99991
:10FCF000FECF92BD81BDF89A992780B50895262F31
:10FD0000F999FECF1FBA92BD81BD20BD0FB6F89400
:0EFD1000FA9AF99A0FBE01960895F894FFCF63
:040000033000E000E9
:00000001FF
